{
  "_format": "hh-sol-artifact-1",
  "contractName": "NFTMarket",
  "sourceName": "contracts/NFTMarket.sol",
  "abi": [
    {
      "inputs": [],
      "stateMutability": "nonpayable",
      "type": "constructor"
    },
    {
      "anonymous": false,
      "inputs": [
        {
          "indexed": true,
          "internalType": "address",
          "name": "owner",
          "type": "address"
        },
        {
          "indexed": true,
          "internalType": "address",
          "name": "approved",
          "type": "address"
        },
        {
          "indexed": true,
          "internalType": "uint256",
          "name": "tokenId",
          "type": "uint256"
        }
      ],
      "name": "Approval",
      "type": "event"
    },
    {
      "anonymous": false,
      "inputs": [
        {
          "indexed": true,
          "internalType": "address",
          "name": "owner",
          "type": "address"
        },
        {
          "indexed": true,
          "internalType": "address",
          "name": "operator",
          "type": "address"
        },
        {
          "indexed": false,
          "internalType": "bool",
          "name": "approved",
          "type": "bool"
        }
      ],
      "name": "ApprovalForAll",
      "type": "event"
    },
    {
      "anonymous": false,
      "inputs": [
        {
          "indexed": false,
          "internalType": "uint256",
          "name": "_fromTokenId",
          "type": "uint256"
        },
        {
          "indexed": false,
          "internalType": "uint256",
          "name": "_toTokenId",
          "type": "uint256"
        }
      ],
      "name": "BatchMetadataUpdate",
      "type": "event"
    },
    {
      "anonymous": false,
      "inputs": [
        {
          "indexed": false,
          "internalType": "uint256",
          "name": "_tokenId",
          "type": "uint256"
        }
      ],
      "name": "MetadataUpdate",
      "type": "event"
    },
    {
      "anonymous": false,
      "inputs": [
        {
          "indexed": false,
          "internalType": "uint256",
          "name": "tokenID",
          "type": "uint256"
        },
        {
          "indexed": false,
          "internalType": "address",
          "name": "from",
          "type": "address"
        },
        {
          "indexed": false,
          "internalType": "address",
          "name": "to",
          "type": "address"
        },
        {
          "indexed": false,
          "internalType": "string",
          "name": "tokenURI",
          "type": "string"
        },
        {
          "indexed": false,
          "internalType": "uint256",
          "name": "price",
          "type": "uint256"
        }
      ],
      "name": "NFTTransfer",
      "type": "event"
    },
    {
      "anonymous": false,
      "inputs": [
        {
          "indexed": true,
          "internalType": "address",
          "name": "previousOwner",
          "type": "address"
        },
        {
          "indexed": true,
          "internalType": "address",
          "name": "newOwner",
          "type": "address"
        }
      ],
      "name": "OwnershipTransferred",
      "type": "event"
    },
    {
      "anonymous": false,
      "inputs": [
        {
          "indexed": true,
          "internalType": "address",
          "name": "from",
          "type": "address"
        },
        {
          "indexed": true,
          "internalType": "address",
          "name": "to",
          "type": "address"
        },
        {
          "indexed": true,
          "internalType": "uint256",
          "name": "tokenId",
          "type": "uint256"
        }
      ],
      "name": "Transfer",
      "type": "event"
    },
    {
      "inputs": [
        {
          "internalType": "address",
          "name": "to",
          "type": "address"
        },
        {
          "internalType": "uint256",
          "name": "tokenId",
          "type": "uint256"
        }
      ],
      "name": "approve",
      "outputs": [],
      "stateMutability": "nonpayable",
      "type": "function"
    },
    {
      "inputs": [
        {
          "internalType": "address",
          "name": "owner",
          "type": "address"
        }
      ],
      "name": "balanceOf",
      "outputs": [
        {
          "internalType": "uint256",
          "name": "",
          "type": "uint256"
        }
      ],
      "stateMutability": "view",
      "type": "function"
    },
    {
      "inputs": [
        {
          "internalType": "uint256",
          "name": "tokenID",
          "type": "uint256"
        }
      ],
      "name": "buyNFT",
      "outputs": [],
      "stateMutability": "payable",
      "type": "function"
    },
    {
      "inputs": [
        {
          "internalType": "uint256",
          "name": "tokenID",
          "type": "uint256"
        }
      ],
      "name": "cancelListing",
      "outputs": [],
      "stateMutability": "nonpayable",
      "type": "function"
    },
    {
      "inputs": [
        {
          "internalType": "string",
          "name": "tokenURI",
          "type": "string"
        }
      ],
      "name": "createNFT",
      "outputs": [],
      "stateMutability": "nonpayable",
      "type": "function"
    },
    {
      "inputs": [
        {
          "internalType": "uint256",
          "name": "tokenId",
          "type": "uint256"
        }
      ],
      "name": "getApproved",
      "outputs": [
        {
          "internalType": "address",
          "name": "",
          "type": "address"
        }
      ],
      "stateMutability": "view",
      "type": "function"
    },
    {
      "inputs": [
        {
          "internalType": "address",
          "name": "owner",
          "type": "address"
        },
        {
          "internalType": "address",
          "name": "operator",
          "type": "address"
        }
      ],
      "name": "isApprovedForAll",
      "outputs": [
        {
          "internalType": "bool",
          "name": "",
          "type": "bool"
        }
      ],
      "stateMutability": "view",
      "type": "function"
    },
    {
      "inputs": [
        {
          "internalType": "uint256",
          "name": "tokenID",
          "type": "uint256"
        },
        {
          "internalType": "uint256",
          "name": "price",
          "type": "uint256"
        }
      ],
      "name": "listNFT",
      "outputs": [],
      "stateMutability": "nonpayable",
      "type": "function"
    },
    {
      "inputs": [],
      "name": "name",
      "outputs": [
        {
          "internalType": "string",
          "name": "",
          "type": "string"
        }
      ],
      "stateMutability": "view",
      "type": "function"
    },
    {
      "inputs": [],
      "name": "owner",
      "outputs": [
        {
          "internalType": "address",
          "name": "",
          "type": "address"
        }
      ],
      "stateMutability": "view",
      "type": "function"
    },
    {
      "inputs": [
        {
          "internalType": "uint256",
          "name": "tokenId",
          "type": "uint256"
        }
      ],
      "name": "ownerOf",
      "outputs": [
        {
          "internalType": "address",
          "name": "",
          "type": "address"
        }
      ],
      "stateMutability": "view",
      "type": "function"
    },
    {
      "inputs": [],
      "name": "renounceOwnership",
      "outputs": [],
      "stateMutability": "nonpayable",
      "type": "function"
    },
    {
      "inputs": [
        {
          "internalType": "address",
          "name": "from",
          "type": "address"
        },
        {
          "internalType": "address",
          "name": "to",
          "type": "address"
        },
        {
          "internalType": "uint256",
          "name": "tokenId",
          "type": "uint256"
        }
      ],
      "name": "safeTransferFrom",
      "outputs": [],
      "stateMutability": "nonpayable",
      "type": "function"
    },
    {
      "inputs": [
        {
          "internalType": "address",
          "name": "from",
          "type": "address"
        },
        {
          "internalType": "address",
          "name": "to",
          "type": "address"
        },
        {
          "internalType": "uint256",
          "name": "tokenId",
          "type": "uint256"
        },
        {
          "internalType": "bytes",
          "name": "data",
          "type": "bytes"
        }
      ],
      "name": "safeTransferFrom",
      "outputs": [],
      "stateMutability": "nonpayable",
      "type": "function"
    },
    {
      "inputs": [
        {
          "internalType": "address",
          "name": "operator",
          "type": "address"
        },
        {
          "internalType": "bool",
          "name": "approved",
          "type": "bool"
        }
      ],
      "name": "setApprovalForAll",
      "outputs": [],
      "stateMutability": "nonpayable",
      "type": "function"
    },
    {
      "inputs": [
        {
          "internalType": "bytes4",
          "name": "interfaceId",
          "type": "bytes4"
        }
      ],
      "name": "supportsInterface",
      "outputs": [
        {
          "internalType": "bool",
          "name": "",
          "type": "bool"
        }
      ],
      "stateMutability": "view",
      "type": "function"
    },
    {
      "inputs": [],
      "name": "symbol",
      "outputs": [
        {
          "internalType": "string",
          "name": "",
          "type": "string"
        }
      ],
      "stateMutability": "view",
      "type": "function"
    },
    {
      "inputs": [
        {
          "internalType": "uint256",
          "name": "tokenId",
          "type": "uint256"
        }
      ],
      "name": "tokenURI",
      "outputs": [
        {
          "internalType": "string",
          "name": "",
          "type": "string"
        }
      ],
      "stateMutability": "view",
      "type": "function"
    },
    {
      "inputs": [
        {
          "internalType": "address",
          "name": "from",
          "type": "address"
        },
        {
          "internalType": "address",
          "name": "to",
          "type": "address"
        },
        {
          "internalType": "uint256",
          "name": "tokenId",
          "type": "uint256"
        }
      ],
      "name": "transferFrom",
      "outputs": [],
      "stateMutability": "nonpayable",
      "type": "function"
    },
    {
      "inputs": [
        {
          "internalType": "address",
          "name": "newOwner",
          "type": "address"
        }
      ],
      "name": "transferOwnership",
      "outputs": [],
      "stateMutability": "nonpayable",
      "type": "function"
    },
    {
      "inputs": [],
      "name": "withdrawFunds",
      "outputs": [],
      "stateMutability": "nonpayable",
      "type": "function"
    }
  ],
  "bytecode": "0x60806040523480156200001157600080fd5b506040518060400160405280600c81526020017f4162646f752773204e46547300000000000000000000000000000000000000008152506040518060400160405280600481526020017f414e46540000000000000000000000000000000000000000000000000000000081525081600090816200008f919062000412565b508060019081620000a1919062000412565b505050620000c4620000b8620000ca60201b60201c565b620000d260201b60201c565b620004f9565b600033905090565b6000600760009054906101000a900473ffffffffffffffffffffffffffffffffffffffff16905081600760006101000a81548173ffffffffffffffffffffffffffffffffffffffff021916908373ffffffffffffffffffffffffffffffffffffffff1602179055508173ffffffffffffffffffffffffffffffffffffffff168173ffffffffffffffffffffffffffffffffffffffff167f8be0079c531659141344cd1fd0a4f28419497f9722a3daafe3b4186f6b6457e060405160405180910390a35050565b600081519050919050565b7f4e487b7100000000000000000000000000000000000000000000000000000000600052604160045260246000fd5b7f4e487b7100000000000000000000000000000000000000000000000000000000600052602260045260246000fd5b600060028204905060018216806200021a57607f821691505b60208210810362000230576200022f620001d2565b5b50919050565b60008190508160005260206000209050919050565b60006020601f8301049050919050565b600082821b905092915050565b6000600883026200029a7fffffffffffffffffffffffffffffffffffffffffffffffffffffffffffffffff826200025b565b620002a686836200025b565b95508019841693508086168417925050509392505050565b6000819050919050565b6000819050919050565b6000620002f3620002ed620002e784620002be565b620002c8565b620002be565b9050919050565b6000819050919050565b6200030f83620002d2565b620003276200031e82620002fa565b84845462000268565b825550505050565b600090565b6200033e6200032f565b6200034b81848462000304565b505050565b5b8181101562000373576200036760008262000334565b60018101905062000351565b5050565b601f821115620003c2576200038c8162000236565b62000397846200024b565b81016020851015620003a7578190505b620003bf620003b6856200024b565b83018262000350565b50505b505050565b600082821c905092915050565b6000620003e760001984600802620003c7565b1980831691505092915050565b6000620004028383620003d4565b9150826002028217905092915050565b6200041d8262000198565b67ffffffffffffffff811115620004395762000438620001a3565b5b62000445825462000201565b6200045282828562000377565b600060209050601f8311600181146200048a576000841562000475578287015190505b620004818582620003f4565b865550620004f1565b601f1984166200049a8662000236565b60005b82811015620004c4578489015182556001820191506020850194506020810190506200049d565b86831015620004e45784890151620004e0601f891682620003d4565b8355505b6001600288020188555050505b505050505050565b613c0880620005096000396000f3fe60806040526004361061012a5760003560e01c806370a08231116100ab578063a22cb4651161006f578063a22cb465146103bb578063b88d4fde146103e4578063c87b56dd1461040d578063da2ed03e1461044a578063e985e9c514610473578063f2fde38b146104b05761012a565b806370a08231146102e8578063715018a6146103255780638da5cb5b1461033c57806394383f141461036757806395d89b41146103905761012a565b806324600fc3116100f257806324600fc314610226578063305a67a81461023d57806342842e0e1461026657806351ed82881461028f5780636352211e146102ab5761012a565b806301ffc9a71461012f57806306fdde031461016c578063081812fc14610197578063095ea7b3146101d457806323b872dd146101fd575b600080fd5b34801561013b57600080fd5b506101566004803603810190610151919061252e565b6104d9565b6040516101639190612576565b60405180910390f35b34801561017857600080fd5b5061018161053a565b60405161018e9190612621565b60405180910390f35b3480156101a357600080fd5b506101be60048036038101906101b99190612679565b6105cc565b6040516101cb91906126e7565b60405180910390f35b3480156101e057600080fd5b506101fb60048036038101906101f6919061272e565b610612565b005b34801561020957600080fd5b50610224600480360381019061021f919061276e565b610729565b005b34801561023257600080fd5b5061023b610789565b005b34801561024957600080fd5b50610264600480360381019061025f9190612679565b610823565b005b34801561027257600080fd5b5061028d6004803603810190610288919061276e565b610a18565b005b6102a960048036038101906102a49190612679565b610a38565b005b3480156102b757600080fd5b506102d260048036038101906102cd9190612679565b610c76565b6040516102df91906126e7565b60405180910390f35b3480156102f457600080fd5b5061030f600480360381019061030a91906127c1565b610cfc565b60405161031c91906127fd565b60405180910390f35b34801561033157600080fd5b5061033a610db3565b005b34801561034857600080fd5b50610351610dc7565b60405161035e91906126e7565b60405180910390f35b34801561037357600080fd5b5061038e60048036038101906103899190612818565b610df1565b005b34801561039c57600080fd5b506103a5610f12565b6040516103b29190612621565b60405180910390f35b3480156103c757600080fd5b506103e260048036038101906103dd9190612884565b610fa4565b005b3480156103f057600080fd5b5061040b600480360381019061040691906129f9565b610fba565b005b34801561041957600080fd5b50610434600480360381019061042f9190612679565b61101c565b6040516104419190612621565b60405180910390f35b34801561045657600080fd5b50610471600480360381019061046c9190612adc565b61112e565b005b34801561047f57600080fd5b5061049a60048036038101906104959190612b29565b6111e6565b6040516104a79190612576565b60405180910390f35b3480156104bc57600080fd5b506104d760048036038101906104d291906127c1565b61127a565b005b6000634906490660e01b7bffffffffffffffffffffffffffffffffffffffffffffffffffffffff1916827bffffffffffffffffffffffffffffffffffffffffffffffffffffffff191614806105335750610532826112fd565b5b9050919050565b60606000805461054990612b98565b80601f016020809104026020016040519081016040528092919081815260200182805461057590612b98565b80156105c25780601f10610597576101008083540402835291602001916105c2565b820191906000526020600020905b8154815290600101906020018083116105a557829003601f168201915b5050505050905090565b60006105d7826113df565b6004600083815260200190815260200160002060009054906101000a900473ffffffffffffffffffffffffffffffffffffffff169050919050565b600061061d82610c76565b90508073ffffffffffffffffffffffffffffffffffffffff168373ffffffffffffffffffffffffffffffffffffffff160361068d576040517f08c379a000000000000000000000000000000000000000000000000000000000815260040161068490612c3b565b60405180910390fd5b8073ffffffffffffffffffffffffffffffffffffffff166106ac61142a565b73ffffffffffffffffffffffffffffffffffffffff1614806106db57506106da816106d561142a565b6111e6565b5b61071a576040517f08c379a000000000000000000000000000000000000000000000000000000000815260040161071190612ccd565b60405180910390fd5b6107248383611432565b505050565b61073a61073461142a565b826114eb565b610779576040517f08c379a000000000000000000000000000000000000000000000000000000000815260040161077090612d5f565b60405180910390fd5b610784838383611580565b505050565b610791611879565b6000479050600081116107d9576040517f08c379a00000000000000000000000000000000000000000000000000000000081526004016107d090612dcb565b60405180910390fd5b3373ffffffffffffffffffffffffffffffffffffffff166108fc829081150290604051600060405180830381858888f1935050505015801561081f573d6000803e3d6000fd5b5050565b600060096000838152602001908152602001600020604051806040016040529081600082015481526020016001820160009054906101000a900473ffffffffffffffffffffffffffffffffffffffff1673ffffffffffffffffffffffffffffffffffffffff1673ffffffffffffffffffffffffffffffffffffffff1681525050905060008160000151116108ec576040517f08c379a00000000000000000000000000000000000000000000000000000000081526004016108e390612e5d565b60405180910390fd5b3373ffffffffffffffffffffffffffffffffffffffff16816020015173ffffffffffffffffffffffffffffffffffffffff161461095e576040517f08c379a000000000000000000000000000000000000000000000000000000000815260040161095590612ec9565b60405180910390fd5b3073ffffffffffffffffffffffffffffffffffffffff166323b872dd3033856040518463ffffffff1660e01b815260040161099b93929190612ee9565b600060405180830381600087803b1580156109b557600080fd5b505af11580156109c9573d6000803e3d6000fd5b505050506109d6826118f7565b7f705332a8918666802fc1504f63ff1f002a5f6cedd30d59ad7ae0b5281aeb8dca8230336000604051610a0c9493929190612f8b565b60405180910390a15050565b610a3383838360405180602001604052806000815250610fba565b505050565b600060096000838152602001908152602001600020604051806040016040529081600082015481526020016001820160009054906101000a900473ffffffffffffffffffffffffffffffffffffffff1673ffffffffffffffffffffffffffffffffffffffff1673ffffffffffffffffffffffffffffffffffffffff168152505090506000816000015111610b01576040517f08c379a0000000000000000000000000000000000000000000000000000000008152600401610af890612e5d565b60405180910390fd5b80600001513414610b47576040517f08c379a0000000000000000000000000000000000000000000000000000000008152600401610b3e9061302f565b60405180910390fd5b3073ffffffffffffffffffffffffffffffffffffffff166323b872dd3033856040518463ffffffff1660e01b8152600401610b8493929190612ee9565b600060405180830381600087803b158015610b9e57600080fd5b505af1158015610bb2573d6000803e3d6000fd5b50505050610bbf826118f7565b806020015173ffffffffffffffffffffffffffffffffffffffff166108fc610c086064610bfa605f866000015161196c90919063ffffffff16565b61198290919063ffffffff16565b9081150290604051600060405180830381858888f19350505050158015610c33573d6000803e3d6000fd5b507f705332a8918666802fc1504f63ff1f002a5f6cedd30d59ad7ae0b5281aeb8dca8230336000604051610c6a9493929190612f8b565b60405180910390a15050565b600080610c8283611998565b9050600073ffffffffffffffffffffffffffffffffffffffff168173ffffffffffffffffffffffffffffffffffffffff1603610cf3576040517f08c379a0000000000000000000000000000000000000000000000000000000008152600401610cea9061309b565b60405180910390fd5b80915050919050565b60008073ffffffffffffffffffffffffffffffffffffffff168273ffffffffffffffffffffffffffffffffffffffff1603610d6c576040517f08c379a0000000000000000000000000000000000000000000000000000000008152600401610d639061312d565b60405180910390fd5b600360008373ffffffffffffffffffffffffffffffffffffffff1673ffffffffffffffffffffffffffffffffffffffff168152602001908152602001600020549050919050565b610dbb611879565b610dc560006119d5565b565b6000600760009054906101000a900473ffffffffffffffffffffffffffffffffffffffff16905090565b60008111610e34576040517f08c379a0000000000000000000000000000000000000000000000000000000008152600401610e2b906131bf565b60405180910390fd5b610e3f333084610729565b60405180604001604052808281526020013373ffffffffffffffffffffffffffffffffffffffff16815250600960008481526020019081526020016000206000820151816000015560208201518160010160006101000a81548173ffffffffffffffffffffffffffffffffffffffff021916908373ffffffffffffffffffffffffffffffffffffffff1602179055509050507f705332a8918666802fc1504f63ff1f002a5f6cedd30d59ad7ae0b5281aeb8dca82333084604051610f0694939291906131df565b60405180910390a15050565b606060018054610f2190612b98565b80601f0160208091040260200160405190810160405280929190818152602001828054610f4d90612b98565b8015610f9a5780601f10610f6f57610100808354040283529160200191610f9a565b820191906000526020600020905b815481529060010190602001808311610f7d57829003601f168201915b5050505050905090565b610fb6610faf61142a565b8383611a9b565b5050565b610fcb610fc561142a565b836114eb565b61100a576040517f08c379a000000000000000000000000000000000000000000000000000000000815260040161100190612d5f565b60405180910390fd5b61101684848484611c07565b50505050565b6060611027826113df565b600060066000848152602001908152602001600020805461104790612b98565b80601f016020809104026020016040519081016040528092919081815260200182805461107390612b98565b80156110c05780601f10611095576101008083540402835291602001916110c0565b820191906000526020600020905b8154815290600101906020018083116110a357829003601f168201915b5050505050905060006110d1611c63565b905060008151036110e6578192505050611129565b60008251111561111b578082604051602001611103929190613273565b60405160208183030381529060405292505050611129565b61112484611c7a565b925050505b919050565b6111386008611ce2565b60006111446008611cf8565b90506111503382611d06565b61119e8184848080601f016020809104026020016040519081016040528093929190818152602001838380828437600081840152601f19601f82011690508083019250505050505050611d24565b7f705332a8918666802fc1504f63ff1f002a5f6cedd30d59ad7ae0b5281aeb8dca81600033868660006040516111d9969594939291906132c4565b60405180910390a1505050565b6000600560008473ffffffffffffffffffffffffffffffffffffffff1673ffffffffffffffffffffffffffffffffffffffff16815260200190815260200160002060008373ffffffffffffffffffffffffffffffffffffffff1673ffffffffffffffffffffffffffffffffffffffff16815260200190815260200160002060009054906101000a900460ff16905092915050565b611282611879565b600073ffffffffffffffffffffffffffffffffffffffff168173ffffffffffffffffffffffffffffffffffffffff16036112f1576040517f08c379a00000000000000000000000000000000000000000000000000000000081526004016112e890613392565b60405180910390fd5b6112fa816119d5565b50565b60007f80ac58cd000000000000000000000000000000000000000000000000000000007bffffffffffffffffffffffffffffffffffffffffffffffffffffffff1916827bffffffffffffffffffffffffffffffffffffffffffffffffffffffff191614806113c857507f5b5e139f000000000000000000000000000000000000000000000000000000007bffffffffffffffffffffffffffffffffffffffffffffffffffffffff1916827bffffffffffffffffffffffffffffffffffffffffffffffffffffffff1916145b806113d857506113d782611dc8565b5b9050919050565b6113e881611e32565b611427576040517f08c379a000000000000000000000000000000000000000000000000000000000815260040161141e9061309b565b60405180910390fd5b50565b600033905090565b816004600083815260200190815260200160002060006101000a81548173ffffffffffffffffffffffffffffffffffffffff021916908373ffffffffffffffffffffffffffffffffffffffff160217905550808273ffffffffffffffffffffffffffffffffffffffff166114a583610c76565b73ffffffffffffffffffffffffffffffffffffffff167f8c5be1e5ebec7d5bd14f71427d1e84f3dd0314c0f7b2291e5b200ac8c7c3b92560405160405180910390a45050565b6000806114f783610c76565b90508073ffffffffffffffffffffffffffffffffffffffff168473ffffffffffffffffffffffffffffffffffffffff161480611539575061153881856111e6565b5b8061157757508373ffffffffffffffffffffffffffffffffffffffff1661155f846105cc565b73ffffffffffffffffffffffffffffffffffffffff16145b91505092915050565b8273ffffffffffffffffffffffffffffffffffffffff166115a082610c76565b73ffffffffffffffffffffffffffffffffffffffff16146115f6576040517f08c379a00000000000000000000000000000000000000000000000000000000081526004016115ed90613424565b60405180910390fd5b600073ffffffffffffffffffffffffffffffffffffffff168273ffffffffffffffffffffffffffffffffffffffff1603611665576040517f08c379a000000000000000000000000000000000000000000000000000000000815260040161165c906134b6565b60405180910390fd5b6116728383836001611e73565b8273ffffffffffffffffffffffffffffffffffffffff1661169282610c76565b73ffffffffffffffffffffffffffffffffffffffff16146116e8576040517f08c379a00000000000000000000000000000000000000000000000000000000081526004016116df90613424565b60405180910390fd5b6004600082815260200190815260200160002060006101000a81549073ffffffffffffffffffffffffffffffffffffffff02191690556001600360008573ffffffffffffffffffffffffffffffffffffffff1673ffffffffffffffffffffffffffffffffffffffff168152602001908152602001600020600082825403925050819055506001600360008473ffffffffffffffffffffffffffffffffffffffff1673ffffffffffffffffffffffffffffffffffffffff16815260200190815260200160002060008282540192505081905550816002600083815260200190815260200160002060006101000a81548173ffffffffffffffffffffffffffffffffffffffff021916908373ffffffffffffffffffffffffffffffffffffffff160217905550808273ffffffffffffffffffffffffffffffffffffffff168473ffffffffffffffffffffffffffffffffffffffff167fddf252ad1be2c89b69c2b068fc378daa952ba7f163c4a11628f55a4df523b3ef60405160405180910390a46118748383836001611e79565b505050565b61188161142a565b73ffffffffffffffffffffffffffffffffffffffff1661189f610dc7565b73ffffffffffffffffffffffffffffffffffffffff16146118f5576040517f08c379a00000000000000000000000000000000000000000000000000000000081526004016118ec90613522565b60405180910390fd5b565b6000600960008381526020019081526020016000206000018190555060006009600083815260200190815260200160002060010160006101000a81548173ffffffffffffffffffffffffffffffffffffffff021916908373ffffffffffffffffffffffffffffffffffffffff16021790555050565b6000818361197a9190613571565b905092915050565b6000818361199091906135e2565b905092915050565b60006002600083815260200190815260200160002060009054906101000a900473ffffffffffffffffffffffffffffffffffffffff169050919050565b6000600760009054906101000a900473ffffffffffffffffffffffffffffffffffffffff16905081600760006101000a81548173ffffffffffffffffffffffffffffffffffffffff021916908373ffffffffffffffffffffffffffffffffffffffff1602179055508173ffffffffffffffffffffffffffffffffffffffff168173ffffffffffffffffffffffffffffffffffffffff167f8be0079c531659141344cd1fd0a4f28419497f9722a3daafe3b4186f6b6457e060405160405180910390a35050565b8173ffffffffffffffffffffffffffffffffffffffff168373ffffffffffffffffffffffffffffffffffffffff1603611b09576040517f08c379a0000000000000000000000000000000000000000000000000000000008152600401611b009061365f565b60405180910390fd5b80600560008573ffffffffffffffffffffffffffffffffffffffff1673ffffffffffffffffffffffffffffffffffffffff16815260200190815260200160002060008473ffffffffffffffffffffffffffffffffffffffff1673ffffffffffffffffffffffffffffffffffffffff16815260200190815260200160002060006101000a81548160ff0219169083151502179055508173ffffffffffffffffffffffffffffffffffffffff168373ffffffffffffffffffffffffffffffffffffffff167f17307eab39ab6107e8899845ad3d59bd9653f200f220920489ca2b5937696c3183604051611bfa9190612576565b60405180910390a3505050565b611c12848484611580565b611c1e84848484611e7f565b611c5d576040517f08c379a0000000000000000000000000000000000000000000000000000000008152600401611c54906136f1565b60405180910390fd5b50505050565b606060405180602001604052806000815250905090565b6060611c85826113df565b6000611c8f611c63565b90506000815111611caf5760405180602001604052806000815250611cda565b80611cb984612006565b604051602001611cca929190613273565b6040516020818303038152906040525b915050919050565b6001816000016000828254019250508190555050565b600081600001549050919050565b611d208282604051806020016040528060008152506120d4565b5050565b611d2d82611e32565b611d6c576040517f08c379a0000000000000000000000000000000000000000000000000000000008152600401611d6390613783565b60405180910390fd5b80600660008481526020019081526020016000209081611d8c9190613945565b507ff8e1a15aba9398e019f0b49df1a4fde98ee17ae345cb5f6b5e2c27f5033e8ce782604051611dbc91906127fd565b60405180910390a15050565b60007f01ffc9a7000000000000000000000000000000000000000000000000000000007bffffffffffffffffffffffffffffffffffffffffffffffffffffffff1916827bffffffffffffffffffffffffffffffffffffffffffffffffffffffff1916149050919050565b60008073ffffffffffffffffffffffffffffffffffffffff16611e5483611998565b73ffffffffffffffffffffffffffffffffffffffff1614159050919050565b50505050565b50505050565b6000611ea08473ffffffffffffffffffffffffffffffffffffffff1661212f565b15611ff9578373ffffffffffffffffffffffffffffffffffffffff1663150b7a02611ec961142a565b8786866040518563ffffffff1660e01b8152600401611eeb9493929190613a6c565b6020604051808303816000875af1925050508015611f2757506040513d601f19601f82011682018060405250810190611f249190613acd565b60015b611fa9573d8060008114611f57576040519150601f19603f3d011682016040523d82523d6000602084013e611f5c565b606091505b506000815103611fa1576040517f08c379a0000000000000000000000000000000000000000000000000000000008152600401611f98906136f1565b60405180910390fd5b805181602001fd5b63150b7a0260e01b7bffffffffffffffffffffffffffffffffffffffffffffffffffffffff1916817bffffffffffffffffffffffffffffffffffffffffffffffffffffffff191614915050611ffe565b600190505b949350505050565b60606000600161201584612152565b01905060008167ffffffffffffffff811115612034576120336128ce565b5b6040519080825280601f01601f1916602001820160405280156120665781602001600182028036833780820191505090505b509050600082602001820190505b6001156120c9578080600190039150507f3031323334353637383961626364656600000000000000000000000000000000600a86061a8153600a85816120bd576120bc6135b3565b5b04945060008503612074575b819350505050919050565b6120de83836122a5565b6120eb6000848484611e7f565b61212a576040517f08c379a0000000000000000000000000000000000000000000000000000000008152600401612121906136f1565b60405180910390fd5b505050565b6000808273ffffffffffffffffffffffffffffffffffffffff163b119050919050565b600080600090507a184f03e93ff9f4daa797ed6e38ed64bf6a1f01000000000000000083106121b0577a184f03e93ff9f4daa797ed6e38ed64bf6a1f01000000000000000083816121a6576121a56135b3565b5b0492506040810190505b6d04ee2d6d415b85acef810000000083106121ed576d04ee2d6d415b85acef810000000083816121e3576121e26135b3565b5b0492506020810190505b662386f26fc10000831061221c57662386f26fc100008381612212576122116135b3565b5b0492506010810190505b6305f5e1008310612245576305f5e100838161223b5761223a6135b3565b5b0492506008810190505b612710831061226a5761271083816122605761225f6135b3565b5b0492506004810190505b6064831061228d5760648381612283576122826135b3565b5b0492506002810190505b600a831061229c576001810190505b80915050919050565b600073ffffffffffffffffffffffffffffffffffffffff168273ffffffffffffffffffffffffffffffffffffffff1603612314576040517f08c379a000000000000000000000000000000000000000000000000000000000815260040161230b90613b46565b60405180910390fd5b61231d81611e32565b1561235d576040517f08c379a000000000000000000000000000000000000000000000000000000000815260040161235490613bb2565b60405180910390fd5b61236b600083836001611e73565b61237481611e32565b156123b4576040517f08c379a00000000000000000000000000000000000000000000000000000000081526004016123ab90613bb2565b60405180910390fd5b6001600360008473ffffffffffffffffffffffffffffffffffffffff1673ffffffffffffffffffffffffffffffffffffffff16815260200190815260200160002060008282540192505081905550816002600083815260200190815260200160002060006101000a81548173ffffffffffffffffffffffffffffffffffffffff021916908373ffffffffffffffffffffffffffffffffffffffff160217905550808273ffffffffffffffffffffffffffffffffffffffff16600073ffffffffffffffffffffffffffffffffffffffff167fddf252ad1be2c89b69c2b068fc378daa952ba7f163c4a11628f55a4df523b3ef60405160405180910390a46124be600083836001611e79565b5050565b6000604051905090565b600080fd5b600080fd5b60007fffffffff0000000000000000000000000000000000000000000000000000000082169050919050565b61250b816124d6565b811461251657600080fd5b50565b60008135905061252881612502565b92915050565b600060208284031215612544576125436124cc565b5b600061255284828501612519565b91505092915050565b60008115159050919050565b6125708161255b565b82525050565b600060208201905061258b6000830184612567565b92915050565b600081519050919050565b600082825260208201905092915050565b60005b838110156125cb5780820151818401526020810190506125b0565b60008484015250505050565b6000601f19601f8301169050919050565b60006125f382612591565b6125fd818561259c565b935061260d8185602086016125ad565b612616816125d7565b840191505092915050565b6000602082019050818103600083015261263b81846125e8565b905092915050565b6000819050919050565b61265681612643565b811461266157600080fd5b50565b6000813590506126738161264d565b92915050565b60006020828403121561268f5761268e6124cc565b5b600061269d84828501612664565b91505092915050565b600073ffffffffffffffffffffffffffffffffffffffff82169050919050565b60006126d1826126a6565b9050919050565b6126e1816126c6565b82525050565b60006020820190506126fc60008301846126d8565b92915050565b61270b816126c6565b811461271657600080fd5b50565b60008135905061272881612702565b92915050565b60008060408385031215612745576127446124cc565b5b600061275385828601612719565b925050602061276485828601612664565b9150509250929050565b600080600060608486031215612787576127866124cc565b5b600061279586828701612719565b93505060206127a686828701612719565b92505060406127b786828701612664565b9150509250925092565b6000602082840312156127d7576127d66124cc565b5b60006127e584828501612719565b91505092915050565b6127f781612643565b82525050565b600060208201905061281260008301846127ee565b92915050565b6000806040838503121561282f5761282e6124cc565b5b600061283d85828601612664565b925050602061284e85828601612664565b9150509250929050565b6128618161255b565b811461286c57600080fd5b50565b60008135905061287e81612858565b92915050565b6000806040838503121561289b5761289a6124cc565b5b60006128a985828601612719565b92505060206128ba8582860161286f565b9150509250929050565b600080fd5b600080fd5b7f4e487b7100000000000000000000000000000000000000000000000000000000600052604160045260246000fd5b612906826125d7565b810181811067ffffffffffffffff82111715612925576129246128ce565b5b80604052505050565b60006129386124c2565b905061294482826128fd565b919050565b600067ffffffffffffffff821115612964576129636128ce565b5b61296d826125d7565b9050602081019050919050565b82818337600083830152505050565b600061299c61299784612949565b61292e565b9050828152602081018484840111156129b8576129b76128c9565b5b6129c384828561297a565b509392505050565b600082601f8301126129e0576129df6128c4565b5b81356129f0848260208601612989565b91505092915050565b60008060008060808587031215612a1357612a126124cc565b5b6000612a2187828801612719565b9450506020612a3287828801612719565b9350506040612a4387828801612664565b925050606085013567ffffffffffffffff811115612a6457612a636124d1565b5b612a70878288016129cb565b91505092959194509250565b600080fd5b600080fd5b60008083601f840112612a9c57612a9b6128c4565b5b8235905067ffffffffffffffff811115612ab957612ab8612a7c565b5b602083019150836001820283011115612ad557612ad4612a81565b5b9250929050565b60008060208385031215612af357612af26124cc565b5b600083013567ffffffffffffffff811115612b1157612b106124d1565b5b612b1d85828601612a86565b92509250509250929050565b60008060408385031215612b4057612b3f6124cc565b5b6000612b4e85828601612719565b9250506020612b5f85828601612719565b9150509250929050565b7f4e487b7100000000000000000000000000000000000000000000000000000000600052602260045260246000fd5b60006002820490506001821680612bb057607f821691505b602082108103612bc357612bc2612b69565b5b50919050565b7f4552433732313a20617070726f76616c20746f2063757272656e74206f776e6560008201527f7200000000000000000000000000000000000000000000000000000000000000602082015250565b6000612c2560218361259c565b9150612c3082612bc9565b604082019050919050565b60006020820190508181036000830152612c5481612c18565b9050919050565b7f4552433732313a20617070726f76652063616c6c6572206973206e6f7420746f60008201527f6b656e206f776e6572206f7220617070726f76656420666f7220616c6c000000602082015250565b6000612cb7603d8361259c565b9150612cc282612c5b565b604082019050919050565b60006020820190508181036000830152612ce681612caa565b9050919050565b7f4552433732313a2063616c6c6572206973206e6f7420746f6b656e206f776e6560008201527f72206f7220617070726f76656400000000000000000000000000000000000000602082015250565b6000612d49602d8361259c565b9150612d5482612ced565b604082019050919050565b60006020820190508181036000830152612d7881612d3c565b9050919050565b7f4e46544d61726b65743a2062616c616e6365206973207a65726f000000000000600082015250565b6000612db5601a8361259c565b9150612dc082612d7f565b602082019050919050565b60006020820190508181036000830152612de481612da8565b9050919050565b7f4e46544d61726b65743a206e6674206e6f74206c697374656420666f7220736160008201527f6c65000000000000000000000000000000000000000000000000000000000000602082015250565b6000612e4760228361259c565b9150612e5282612deb565b604082019050919050565b60006020820190508181036000830152612e7681612e3a565b9050919050565b7f4e46544d61726b65743a20796f75277265206e6f74207468652073656c6c6572600082015250565b6000612eb360208361259c565b9150612ebe82612e7d565b602082019050919050565b60006020820190508181036000830152612ee281612ea6565b9050919050565b6000606082019050612efe60008301866126d8565b612f0b60208301856126d8565b612f1860408301846127ee565b949350505050565b50565b6000612f3060008361259c565b9150612f3b82612f20565b600082019050919050565b6000819050919050565b6000819050919050565b6000612f75612f70612f6b84612f46565b612f50565b612643565b9050919050565b612f8581612f5a565b82525050565b600060a082019050612fa060008301876127ee565b612fad60208301866126d8565b612fba60408301856126d8565b8181036060830152612fcb81612f23565b9050612fda6080830184612f7c565b95945050505050565b7f4e46544d61726b65743a20696e636f7272656374207072696365000000000000600082015250565b6000613019601a8361259c565b915061302482612fe3565b602082019050919050565b600060208201905081810360008301526130488161300c565b9050919050565b7f4552433732313a20696e76616c696420746f6b656e2049440000000000000000600082015250565b600061308560188361259c565b91506130908261304f565b602082019050919050565b600060208201905081810360008301526130b481613078565b9050919050565b7f4552433732313a2061646472657373207a65726f206973206e6f74206120766160008201527f6c6964206f776e65720000000000000000000000000000000000000000000000602082015250565b600061311760298361259c565b9150613122826130bb565b604082019050919050565b600060208201905081810360008301526131468161310a565b9050919050565b7f4e46544d61726b65743a207072696365206d757374206265206772656174657260008201527f207468616e203000000000000000000000000000000000000000000000000000602082015250565b60006131a960278361259c565b91506131b48261314d565b604082019050919050565b600060208201905081810360008301526131d88161319c565b9050919050565b600060a0820190506131f460008301876127ee565b61320160208301866126d8565b61320e60408301856126d8565b818103606083015261321f81612f23565b905061322e60808301846127ee565b95945050505050565b600081905092915050565b600061324d82612591565b6132578185613237565b93506132678185602086016125ad565b80840191505092915050565b600061327f8285613242565b915061328b8284613242565b91508190509392505050565b60006132a3838561259c565b93506132b083858461297a565b6132b9836125d7565b840190509392505050565b600060a0820190506132d960008301896127ee565b6132e660208301886126d8565b6132f360408301876126d8565b8181036060830152613306818587613297565b90506133156080830184612f7c565b979650505050505050565b7f4f776e61626c653a206e6577206f776e657220697320746865207a65726f206160008201527f6464726573730000000000000000000000000000000000000000000000000000602082015250565b600061337c60268361259c565b915061338782613320565b604082019050919050565b600060208201905081810360008301526133ab8161336f565b9050919050565b7f4552433732313a207472616e736665722066726f6d20696e636f72726563742060008201527f6f776e6572000000000000000000000000000000000000000000000000000000602082015250565b600061340e60258361259c565b9150613419826133b2565b604082019050919050565b6000602082019050818103600083015261343d81613401565b9050919050565b7f4552433732313a207472616e7366657220746f20746865207a65726f2061646460008201527f7265737300000000000000000000000000000000000000000000000000000000602082015250565b60006134a060248361259c565b91506134ab82613444565b604082019050919050565b600060208201905081810360008301526134cf81613493565b9050919050565b7f4f776e61626c653a2063616c6c6572206973206e6f7420746865206f776e6572600082015250565b600061350c60208361259c565b9150613517826134d6565b602082019050919050565b6000602082019050818103600083015261353b816134ff565b9050919050565b7f4e487b7100000000000000000000000000000000000000000000000000000000600052601160045260246000fd5b600061357c82612643565b915061358783612643565b925082820261359581612643565b915082820484148315176135ac576135ab613542565b5b5092915050565b7f4e487b7100000000000000000000000000000000000000000000000000000000600052601260045260246000fd5b60006135ed82612643565b91506135f883612643565b925082613608576136076135b3565b5b828204905092915050565b7f4552433732313a20617070726f766520746f2063616c6c657200000000000000600082015250565b600061364960198361259c565b915061365482613613565b602082019050919050565b600060208201905081810360008301526136788161363c565b9050919050565b7f4552433732313a207472616e7366657220746f206e6f6e20455243373231526560008201527f63656976657220696d706c656d656e7465720000000000000000000000000000602082015250565b60006136db60328361259c565b91506136e68261367f565b604082019050919050565b6000602082019050818103600083015261370a816136ce565b9050919050565b7f45524337323155524953746f726167653a2055524920736574206f66206e6f6e60008201527f6578697374656e7420746f6b656e000000000000000000000000000000000000602082015250565b600061376d602e8361259c565b915061377882613711565b604082019050919050565b6000602082019050818103600083015261379c81613760565b9050919050565b60008190508160005260206000209050919050565b60006020601f8301049050919050565b600082821b905092915050565b6000600883026138057fffffffffffffffffffffffffffffffffffffffffffffffffffffffffffffffff826137c8565b61380f86836137c8565b95508019841693508086168417925050509392505050565b600061384261383d61383884612643565b612f50565b612643565b9050919050565b6000819050919050565b61385c83613827565b61387061386882613849565b8484546137d5565b825550505050565b600090565b613885613878565b613890818484613853565b505050565b5b818110156138b4576138a960008261387d565b600181019050613896565b5050565b601f8211156138f9576138ca816137a3565b6138d3846137b8565b810160208510156138e2578190505b6138f66138ee856137b8565b830182613895565b50505b505050565b600082821c905092915050565b600061391c600019846008026138fe565b1980831691505092915050565b6000613935838361390b565b9150826002028217905092915050565b61394e82612591565b67ffffffffffffffff811115613967576139666128ce565b5b6139718254612b98565b61397c8282856138b8565b600060209050601f8311600181146139af576000841561399d578287015190505b6139a78582613929565b865550613a0f565b601f1984166139bd866137a3565b60005b828110156139e5578489015182556001820191506020850194506020810190506139c0565b86831015613a0257848901516139fe601f89168261390b565b8355505b6001600288020188555050505b505050505050565b600081519050919050565b600082825260208201905092915050565b6000613a3e82613a17565b613a488185613a22565b9350613a588185602086016125ad565b613a61816125d7565b840191505092915050565b6000608082019050613a8160008301876126d8565b613a8e60208301866126d8565b613a9b60408301856127ee565b8181036060830152613aad8184613a33565b905095945050505050565b600081519050613ac781612502565b92915050565b600060208284031215613ae357613ae26124cc565b5b6000613af184828501613ab8565b91505092915050565b7f4552433732313a206d696e7420746f20746865207a65726f2061646472657373600082015250565b6000613b3060208361259c565b9150613b3b82613afa565b602082019050919050565b60006020820190508181036000830152613b5f81613b23565b9050919050565b7f4552433732313a20746f6b656e20616c7265616479206d696e74656400000000600082015250565b6000613b9c601c8361259c565b9150613ba782613b66565b602082019050919050565b60006020820190508181036000830152613bcb81613b8f565b905091905056fea264697066735822122069d34676f60bc52c4f63eda04c4d812df279a2048ce4b13455a8f776cb8c9abf64736f6c63430008130033",
  "linkReferences": {},
  "deployedLinkReferences": {}
}